:100000000C9466000C9485000C9485000C9485007B
:100010000C9485000C9485000C9485000C9485004C
:100020000C9485000C9485000C9485000C9485003C
:100030000C9485000C9487000C9485000C9485002A
:100040000C9485000C9485000C9485000C9485001C
:100050000C94EC030C9478030C9485000C948500AC
:100060000C9485000C9485000C9485000C948500FC
:100070000C9485000C9485000C9485000C948500EC
:100080000C948E050C9485000C948500001F0000D4
:1000900000001F00001F101010101F00001F181874
:1000A00018181F00001F1C1C1C1C1F00001F1E1EF8
:1000B0001E1E1F00001F1F1F1F1F1F0003070F1FF3
:1000C0000F070300181C1E1F1E1C180011241FBE42
:1000D000CFEFD0E4DEBFCDBF19E0A0E0B1E0E4E1B6
:1000E000F4E100E00BBF02C007900D92A23CB10703
:1000F000D9F716E1A2ECB9E001C01D92AB3BB10704
:10010000E1F70E94EF050C94080A0C9400001F927E
:100110000F920FB60F920BB60F9211242F923F92AF
:100120004F925F926F927F928F929F92AF92BF9207
:10013000CF92DF92EF92FF920F931F932F933F93F3
:100140004F935F936F937F938F939F93AF93BF93DF
:10015000CF93DF93EF93FF9310926F0050906C1644
:10016000B09B14C08091AC169091AD16A091AE16C4
:10017000B091AF160196A11DB11D8093AC1690935E
:10018000AD16A093AE16B093AF16B09A80918400CE
:10019000909185003C01882499248091AC1690911F
:1001A000AD16A091AE16B091AF16DC019927882745
:1001B000680E791E8A1E9B1E40906B1670E061E0EF
:1001C000FFEFAF2EFFEFBF2EFFEFCF2EFFE7DF2EAB
:1001D000EBE02E2E33243394CBE0D0E043C0629D7D
:1001E000D0011124A359B94E1A968C911A978230D6
:1001F000A1F41296ED90FD900D911C9115976E143F
:100200007F048006910620F01A963C921A9705C04A
:10021000EA14FB040C051D0510F0860175011A9601
:100220008C911A978130D9F4872F90E08C9FF00140
:100230008D9FF00D9C9FF00D1124E559F94E1696F7
:100240002D913D914D915C91199780859185A28565
:10025000B385281739074A075B0708F4762F6F5FC5
:1002600057016801461608F0BACF7515B1F0EBE0FA
:100270005E9ED0011124A359B94E8DB78C938EB7D1
:1002800011968C937E9FF0011124E359F94E8181E0
:100290008EBF80818DBF70936C16A092B016B09205
:1002A000B116C092B216D092B3162091840030914C
:1002B000850040E050E08091AC169091AD16A09181
:1002C000AE16B091AF16DC0199278827280F391F89
:1002D0004A1F5B1FD601C501821B930BA40BB50BF4
:1002E0009C01AD0184309105A105B10524F424E001
:1002F00030E040E050E08091840090918500A0E0E3
:10030000B0E0820F931FA41FB51F80509040A14002
:10031000B04038F48091840090918500820F931F43
:100320000EC080918400909185008C5F9F4F28F4CF
:10033000109289001092880006C084E090E09093AB
:1003400089008093880082E080936F00FF91EF9195
:10035000DF91CF91BF91AF919F918F917F916F91DD
:100360005F914F913F912F911F910F91FF90EF90CF
:10037000DF90CF90BF90AF909F908F907F906F90C5
:100380005F904F903F902F900F900BBE0F900FBE3D
:100390000F901F9018951092850010928400109273
:1003A000800025E02093810022E020936F002FEF52
:1003B00030E4281B390B3093AB162093AA16109209
:1003C0006B1610926C161092AC161092AD1610921D
:1003D000AE161092AF168FEF9FEFAFEFBFE780938F
:1003E000B0169093B116A093B216B093B316809343
:1003F000731690937416A0937516B0937616109298
:100400006F161092701610927116109272167894E0
:1004100008958F929F92AF92BF92CF92DF92EF9208
:10042000FF920F931F93CF93DF9349015A01F894E2
:1004300020916B162F5F20936B16C091AA16D09156
:10044000AB169E01261B370B3093AB162093AA16D2
:100450008883FE0192933197DF01CE014C971C9265
:100460001197A817B907D9F77A97C082D292319716
:10047000DF019E01245230401C921197A217B3074E
:10048000D9F79F0126503040E0916B168BE0E89F32
:10049000F0011124E359F94E82829382A482B5823D
:1004A000E682F7820087118782E08287208331838A
:1004B0000E948700DF91CF911F910F91FF90EF90E5
:1004C000DF90CF90BF90AF909F908F900895F89459
:1004D000EBE6F6E1E80FF11D60AF78940895482F40
:1004E00020916C16F894E82FF0E0ED55F94E8081DC
:1004F000882319F08150808310C030E08BE090E0B9
:10050000289FF001299FF00D389FF00D1124E35929
:10051000F94E4E5F42870E94870078940895FF92BB
:100520000F931F93182FF89400916B16E1E04FEF93
:100530005FEF6FEF7FEFF0E08BE0F82E212F30E0E0
:100540002E5F3F4F1EC0EF9DD0011124A359B94E1D
:100550001A968C911A9790E08217930769F4169671
:100560008D919D910D90BC91A02D481759076A0758
:100570007B0710F0FE2F02C0DB01CA01EF5FAC0168
:10058000BD010E1700F7FF2341F4E12FF0E0E6591B
:10059000F94E81AD8F5F81AF11C02F2F30E08BE01E
:1005A00090E0289FF001299FF00D389FF00D112455
:1005B000E559F94E81E084870E94870078941F9165
:1005C0000F91FF900895209184003091850040E0C4
:1005D00050E08091AC169091AD16A091AE16B091FE
:1005E000AF16DC0199278827280F391F4A1F5B1F88
:1005F000B901CA010895E0916C16ABE0EA9FF001E1
:100600001124E359F94EF894A2E0A2876283738320
:100610008483958326833783408751870E94870090
:10062000089580916C1690E02BE030E0829FF001FD
:10063000839FF00D929FF00D1124E559F94EDF01D3
:100640001496648111967C91119712968C91129751
:1006500013969C91089580916C1690E02BE030E009
:10066000829FF001839FF00D929FF00D1124E559B8
:10067000F94EDF011896608511967C9111971296BC
:100680008C91129713969C910895F89480916C1612
:1006900090E02BE030E0829FF001839FF00D929F6D
:1006A000F00D1124E559F94E14860E948700089533
:1006B000F894E82FF0E0ED55F94E8081882319F089
:1006C000815080838F5F7894089587E68093C4007B
:1006D000E1ECF0E088E180831092B20D1092B10D50
:1006E0001092B40D1092B30D8081806880830895BC
:1006F0001F920F920FB60F920BB60F9211242F93E9
:100700003F938F939F93EF93FF932091B10D30917F
:10071000B20D8091B30D9091B40D2817390731F4C3
:100720008091C1008F7D8093C1001DC0E091B30D09
:10073000F091B40DEB54F24F80818093C60080910C
:10074000B30D9091B40D01969093B40D8093B30DB9
:100750008091B30D9091B40D883C910521F41092D5
:10076000B40D1092B30DFF91EF919F918F913F9136
:100770002F910F900BBE0F900FBE0F901F901895EA
:100780001F93182F8A3019F48DE00E94C0038091C6
:10079000B10D9091B20D8F5F883C09F480E0E0913B
:1007A000B10DF091B20DEB54F24F1083282F30E0D1
:1007B0008091B30D9091B40D28173907C9F3309388
:1007C000B20D2093B10D8091C10080628093C10071
:1007D00080E090E01F9108951F920F920FB60F9244
:1007E0000BB60F9211242F933F934F935F936F9308
:1007F0007F938F939F93AF93BF93EF93FF938091DA
:10080000C6008093B41681E00E948F02FF91EF91A1
:10081000BF91AF919F918F917F916F915F914F9118
:100820003F912F910F900BBE0F900FBE0F901F9016
:100830001895EF92FF920F931F93CF93DF937C0154
:100840008091C7099091C809892B09F0A1C009ECD2
:1008500019E081E00E946F028091C00084FF03C014
:100860002EEF3FEFA9C08091C00083FDA3C09091FF
:10087000B4169D3011F09A3081F48AE0F80180833B
:10088000B7010E94C00389EC99E09093C809809356
:10089000C70982E00E948F027BC0993009F490E280
:1008A000892F80528F3510F0903A70F0FDE0003BB8
:1008B0001F0711F487E004C0F80191938F01892F7D
:1008C000B7010E94C003C5CF923139F1933138F49A
:1008D000933009F46FC0983009F0BBCF09C097314D
:1008E00009F44BC09F3721F0953109F0B2CF32C0E7
:1008F000F9E0093C1F0709F008F4ABCF88E0B70125
:100900000E94C00380E2B7010E94C00388E0B701E3
:100910000E94C003015010409CCF8DE0B7010E949F
:10092000C003C9ECD9E004C08991B7010E94C0039B
:10093000C017D107C8F38DCF88E0B7010E94C0036C
:1009400080E2B7010E94C00388E0B7010E94C003A3
:100950000150104089E0093C180709F068F779CF89
:1009600088E0B7010E94C00380E2B7010E94C00383
:1009700088E0B7010E94C0038E01E9E0093C1E0730
:1009800009F008F466CFE8018A91803249F761CF17
:10099000E091C709F091C8098191F093C809E093EB
:1009A000C7098A3021F41092C8091092C709282F6C
:1009B00030E002C02FEF3FEFC901DF91CF911F91CF
:1009C0000F91FF90EF900895CF93DF93EB01FC011F
:1009D000C115D10509F45BC0219131914191B8E075
:1009E000AFB7F894109A37FD01C0109837FD00C0DA
:1009F000000000000000000000000000330FBA9566
:100A0000109881F7B7E0109A27FD01C0109827FDD4
:100A100000C0000000000000000000000000220FE5
:100A2000BA95109881F70000109A27FD01C0109820
:100A300027FD00C000000000000021913191B7E0C7
:100A4000109800000000109A47FD01C0109847FD63
:100A500000C0000000000000000000000000440F83
:100A6000BA95109881F70000109A47FD01C01098C0
:100A700047FD00C000000000B8E0219719F0419147
:100A80001098B0CF0000109800000000AFBFDF91B9
:100A9000CF910895EF92FF920F931F93CF93DF931F
:100AA000C0E3D0E08091C4099091C5099C012C9FBE
:100AB000C0012D9F900D3C9F900D11248C5E9E4F88
:100AC00060E170E00E94E4042091AC163091AD1614
:100AD0004091AE165091AF16A9013327222760919D
:100AE000840070918500E0908400F090850080E0A3
:100AF00090E0620F731F841F951F64567F4F8F4FC6
:100B00009F4F00E010E02E0D3F1D401F511F245647
:100B10003F4F4F4F5F4F0E94FB02C4CF1F920F9277
:100B20000FB60F920BB60F9211242F933F938F9312
:100B30009F93EF93FF938091C6098230E9F520914E
:100B4000691630916A168091810E9091820E281755
:100B500039076CF42B5D3F4F3093C5092093C409CE
:100B60002452304030936A16209369162BC0E091CE
:100B7000C209F091C309EE0FFF1FED57F14F8081BD
:100B800091819093C5098093C4098091C409909183
:100B9000C5098F5F9F4F31F41092C6091092C509A5
:100BA0001092C4098091C2099091C3090196909353
:100BB000C3098093C20906C0882321F41092C50995
:100BC0001092C409FF91EF919F918F913F912F91C6
:100BD0000F900BBE0F900FBE0F901F901895CF92E5
:100BE000DF92EF92FF920F931F93089A10988CE078
:100BF0008093910080E197E2909399008093980010
:100C000082E0809371000E940D080E9475080E9486
:100C1000A60780E090E060E070E00E94C3070E94B9
:100C2000650364EB79E07093BA166093B91670931C
:100C3000B6166093B5167093B8166093B71680E039
:100C400091E00E94760980E590E00E94CB01F89443
:100C50001092A4167894F8941092A5167894F894AB
:100C600081E08093A61678948AE495E064E670E0CB
:100C700029E03DE340E050E0B9E0EB2EBDE3FB2E80
:100C8000012D112DADE7CA2EAEE0DA2E0E94090229
:100C900084EA96E064E670E02AE136E040E050E065
:100CA000FAE1EF2EF6E0FF2E012D112DEFE7CE2E0B
:100CB000EEE0DE2E0E94090283B7817F83BF83B7F7
:100CC000816083BF8895FECFAF92BF92CF92DF92B3
:100CD000EF92FF920F931F93DF93CF9300D00F9269
:100CE000CDB7DEB77C016B0100E010E05E01089437
:100CF000A11CB11C11C0B701600F711FC50142E0FA
:100D000050E00E945F09C5010E944109F6018193EC
:100D100091936F010D5F1F4FF70101900020E9F7DC
:100D20003197EE19FF090E171F0728F30F900F9048
:100D30000F90CF91DF911F910F91FF90EF90DF9077
:100D4000CF90BF90AF9008952F923F924F925F92B5
:100D50006F927F928F929F92AF92BF92CF92DF92CB
:100D6000EF92FF920F931F93DF93CF93CDB7DEB730
:100D7000C15FD3400FB6F894DEBF0FBECDBF8E016A
:100D8000065F1F4F5CE0852E912C8C0E9D1E46E069
:100D9000A42EB12CAC0EBD1E6E010894C11CD11C3A
:100DA00032E1232E312C2C0E3D1E20EF422E512CF1
:100DB0009CE3692E712C83E0E82EF12CEC0EFD1ED5
:100DC000C8010E94A10982E00E946F028091C609B9
:100DD0008230B1F380E090E060E070E00E94C307F1
:100DE000F80101900020E9F73197E01BF10BC801F1
:100DF000BF010E94AE078A85813379F4C701B4012F
:100E000042E050E00E945F09C7010E9441099093AF
:100E1000C5098093C40981E058C0C501B40143E00D
:100E200050E00E945F09C5010E9441099093681635
:100E300080936716CC9724F47092681660926716B8
:100E40008091671690916816813F910524F0509229
:100E500068164092671620916716309168164427ED
:100E600037FD4095542F60E778E389E390E00E94D6
:100E70000409215030403093990020939800C60116
:100E8000BE01605F7F4F41E050E00E945F09C601F4
:100E90000E9441099093820E8093810E18161906C4
:100EA00034F081E090E09093820E8093810E109256
:100EB0006A1610926916C10163E87EE00E9464061A
:100EC0001092C3091092C20982E08093C60978CFBC
:100ED000282F207F28B9409A429A20E43FE1F90167
:100EE0003197F1F742984098F9013197F1F790E086
:100EF00044E0880F991F4A95E1F788B9409A429AD1
:100F0000C9010197F1F742984098C9010197F1F79B
:100F10000895282F207F28B9429A20E43FE1F90163
:100F20003197F1F74298F9013197F1F790E054E0E9
:100F3000880F991F5A95E1F788B9429AC90101971C
:100F4000F1F74298C9010197F1F7089581E00E94F5
:100F50008907089582E00E94890708950F931F93DF
:100F6000CF93DF93062F009749F0EC0110E004C007
:100F700089910E9468071F5F1017D0F3DF91CF910E
:100F80001F910F910895623031F0633031F061307C
:100F900029F4805C03C08C5E01C08C5A80680E947A
:100FA000890708951F93CF93DF93EC01862F642F59
:100FB0000E94C30710E003C00E9468071F5FFE0184
:100FC000E10FF11D84918823B9F7DF91CF911F9133
:100FD0000895EF92FF920F931F93CF93DF937C01BD
:100FE000162F110F110F110F1064C0E0D0E0F701A0
:100FF000EC0FFD1F0491812F8C0F0E948907802F19
:101000000E9468072196C830D10589F7DF91CF91FA
:101010001F910F91FF90EF9008951F93CF93DF934F
:1010200080E69AEE0197F1F718B818B887B1806F8B
:1010300087B987B1876087B980E388B9429A20E48D
:101040003FE1F9013197F1F74298F9013197F1F752
:1010500088B9429AC9010197F1F74298C9010197ED
:10106000F1F780E288B9429AC9010197F1F74298F5
:10107000C9010197F1F788E20E9489078CE00E947C
:101080008907CCE8D0E060E0162F1F5FCE010E94F8
:10109000E9072896612F1830B9F7DF91CF911F919A
:1010A00008950F931F93082F10E004C08EE10E9453
:1010B00089071F5F1017D0F31F910F9108950F93A9
:1010C0001F93082F10E004C088E10E9489071F5F6A
:1010D0001017D0F31F910F9108958EE00E94890799
:1010E00008958FE00E94890708958CE00E94890787
:1010F000089588E00E94890708958CE00E9489077E
:1011000008950F931F93082F10E004C080E10E9400
:1011100089071F5F1017D0F31F910F9108950F9348
:101120001F93082F10E004C084E10E9489071F5F0D
:101130001017D0F31F910F910895DF92EF92FF9255
:101140000F931F93CF93DF93D42E96E0899FC00116
:101150001124242F30E0AC01429FC001439F900D29
:10116000529F900D112470E00E94F108EB01CB0119
:1011700066E070E00E94DD08E82EFF2400E010E049
:1011800012C0C8010596C817D90710F085E006C03F
:10119000C017D10710F08E2D01C080E00E946807B3
:1011A000F3940A5F1F4FFD1460F3DF91CF911F91FD
:1011B0000F91FF90EF90DF900895AA1BBB1B51E1A8
:1011C00007C0AA1FBB1FA617B70710F0A61BB70BB7
:1011D000881F991F5A95A9F780959095BC01CD015C
:1011E000089597FB092E07260AD077FD04D0E5DF86
:1011F00006D000201AF4709561957F4F0895F6F798
:10120000909581959F4F089597FB092E05260ED046
:1012100057FD04D014D00AD0001C38F450954095E6
:10122000309521953F4F4F4F5F4F0895F6F79095BA
:101230008095709561957F4F8F4F9F4F0895A1E2E4
:101240001A2EAA1BBB1BFD010DC0AA1FBB1FEE1F40
:10125000FF1FA217B307E407F50720F0A21BB30B8B
:10126000E40BF50B661F771F881F991F1A9469F707
:1012700060957095809590959B01AC01BD01CF0163
:101280000895FC0188279927E89421912032E9F3F9
:10129000293010F02E30C8F32B3241F02D3239F4C2
:1012A000689404C00E946E09820F911D2191205301
:1012B0002A30C0F31EF4909581959F4F0895FB014D
:1012C000DC014150504048F001900D920020C9F7D8
:1012D00001C01D9241505040E0F708957AE0979F79
:1012E000902D879F802D910D11240895EF92FF92EC
:1012F0000F931F93CF93DF937C018B01DB01139638
:101300008C9181FD03C0CFEFDFEF13C0C0E0D0E0D0
:101310000BC0D8011896ED91FC911997B801099569
:10132000892B11F0CFEFDFEFF70181917F01882347
:1013300081F7CE01DF91CF911F910F91FF90EF9038
:1013400008950F931F93CF93DF938C01E091B5160F
:10135000F091B616838180FF11C0E8018091B51627
:101360009091B6160E94C6092FEF8F3F920731F079
:1013700089930A9799F72197188202C000E010E03C
:10138000C801DF91CF911F910F910895CF93DF9303
:10139000EC014B8140FF1AC046FF0AC04F7B4B83D4
:1013A0008E819F8101969F838E838A81282F2BC0F7
:1013B00042FF13C0E881F9818081282F332727FD60
:1013C00030952115310529F440624B832FEF3FEF13
:1013D0001BC03196F983E88311C0EA85FB85CE01F5
:1013E00009959C0197FF0AC09B812F5F3F4F11F029
:1013F00080E201C080E1892B8B83E8CF8E819F81C1
:1014000001969F838E8330E0C901DF91CF910895CB
:04141000F894FFCF7E
:101414000A0D205452542039666562323030390A3C
:101424000D0A0D0000000000000000000000000094
:1014340000000000000000000000000000000000A8
:101444000000000000000000000000000000000098
:101454000000000000000000140000000000000074
:101464000000000000000000000014000000000064
:101474000000000000000000000000000000000068
:101484000000000000000000000000000000000058
:101494000000000000000000001400000000000034
:1014A4000000000000000000000000000000000038
:1014B4000000000000000000001400000000000014
:1014C4000000000000000000000000000000000018
:1014D4000000000000000000000000000000000008
:1014E40000000000000000000000001400001400D0
:1014F40000000000000000140000000000140000C0
:1015040000000000000000000000000000000000D7
:10151400000000000000001400001400001400008B
:1015240000000000000000000000000014000000A3
:1015340000000000000000000000000000000000A7
:10154400000000000000140000000000140000145B
:101554000000000000000000140000000000000073
:101564000000000000000000000000000000000077
:101574000000000000000000000000000000000067
:10158400001400001400000000000000000000002F
:101594001400000000000000000000000000000033
:1015A4000000140000000000000000000000000023
:1015B40014000014000014000000000000000000EB
:1015C4000000000000000000000000000000000017
:1015D40000140000000000000000000000000000F3
:1015E40000001400001400000000001400000000BB
:1015F40000140000000000000000000000000000D3
:1016040000000000000000000000000000000000D6
:1016140000000000000000000000000000000000C6
:1016240000000000000014000000000000000000A2
:1016340000000000000000000000000000000000A6
:101644000000000000000000000000000000001482
:10165400000014000014000000000000000000005E
:101664000000000000000000000000000000001462
:101674000000000000000000000000000000000066
:101684000000000000000000000000000000000056
:10169400000000000014000014000014000000000A
:1016A4000000000000000000000000000000000036
:1016B4000000000000000000001400000000000012
:1016C4000000000014000000000000000000000002
:1016D4000000000000000000000000000000000006
:1016E40000000000000000001400001400001400BA
:1016F40000000000000014000014000014000000AA
:1017040000001400000000000000000000000000C1
:1017140000000000000000000000000000000000C5
:1017240000000000000000000000000000000000B5
:101734000000000014000014000014000000000069
:101744000000000000000000000000000000000095
:101754000000000000000000000014000000000071
:10176400000000000000140000140000000000004D
:101774000000000000000000000000000000000065
:101784000000000000000000000000000000000055
:101794000000000000140000140000140000000009
:1017A4000000000000000014000000000000000021
:1017B4000000000000000000000000000000140011
:1017C4000000000000000000000000000000000015
:1017D40014000014000000000000000000000000DD
:1017E40000000000000000000000000000140000E1
:1017F40000000014000000000000000014000014A9
:1018040000000000000000000000000000000000D4
:1018140000000000000000000000000000000000C4
:1018240000000000000000000000000000001400A0
:101834000014000014000000000014000000000068
:101844000000000000140000000000000000000080
:101854000014000000000000000000000000000070
:101864000000000000000000000000000000001460
:101874000000000000000000000000000000000064
:101884001400000000000000000000000000000040
:10189400000014000000000000000000000014001C
:1018A4000000000000001400000000000000000020
:1018B40000001400000000001400000000000000FC
:1018C4000000000000000000000000000000000014
:1018D40000000000000000000000001400000000F0
:1018E40000000000000000000000140000000000E0
:1018F40000000000000000000000000000000000E4
:1019040000000000140000000000140000000000AB
:1019140000000000000000000000000000000000C3
:10192400000000000014000000000000000000009F
:10193400000000000000000000000000140000008F
:10194400000000000000000000000014000000007F
:10195400001400000000001400000000000000005B
:10196400000000000000000014000000000014004B
:10197400000000001400000000000000001400003B
:101984000000000000000000000000000000000053
:10199400000000000000001400000000000000002F
:1019A400000000140000000000140000000000000B
:1019B4000000000000000000000000000000000023
:1019C4000000000000000000000000000000000013
:1019D40000000000001400000000000000001400DB
:1019E40000000000000000000000140000000000DF
:1019F40014000000000000000000000000000000CF
:101A040000140000000000140000000000000000AA
:101A140000000014000000000000000000000000AE
:101A2400000000000000000000000000001400009E
:101A3400000000000000140000000000000000008E
:101A4400000014000000000000000000000000007E
:101A5400000000000000000000000000140000006E
:101A6400000014000000000014000000000000004A
:101A74000000000000000000000000000000000062
:101A8400000000000014000000000000000000003E
:101A94000000000000000000000000000000000042
:101AA40014000000000014000000000014000000F6
:101AB400000000001400000000000000000000000E
:101AC40014000000000000000000000000000014EA
:101AD40000000000000000000000001400000000EE
:101AE40000000000000014000000000000000000DE
:101AF40000000000001400000000000000000000CE
:101B040000140000000000140000000000000000A9
:101B1400000000000A0A0A000000000000000000A3
:101B240000000000000000000000000000000000B1
:101B340000000000000000000000000000000000A1
:101B44000000000000000000000000000000000091
:101B54000000000000000000000A0A0A0000000063
:101B64000000000000000000000000000000000071
:101B74000000000000000000000000000000000061
:101B84000000000000000000000000000A0A0A0033
:101B94000000000000000000000000000000000041
:101BA4000000000000000000000000000000000031
:101BB4000000000000000000000000000000000021
:101BC4000000000000000000000000000000000011
:101BD400000A0A0A0000000A0A0A000000000000C5
:101BE40000000000000000000000000000000000F1
:101BF40000000000000000000000000000000000E1
:101C040000000000000000000000000000000000D0
:101C14000000000000000A0A0A00000000000000A2
:101C240000000000000000000000000000000000B0
:101C340000000000000000000000000000000000A0
:101C44000000000000000000000000000000000A86
:101C54000A0A00000000000000000000000000006C
:101C64000000000000000000000000000000000070
:101C74000000000000000000000000000000000060
:101C840000000000000000000000000000000A0A3C
:101C94000A0000000000000000000A0A0A00000018
:101CA4000000000000000000000000000000000030
:101CB4000000000000000000000000000000000020
:101CC400000000000000000300000000C00319042D
:021CD40000000E
:00000001FF
